:020000040800F2
:1000000060930020FD5A00087D0500087F05000868
:1000100083050008870500088B0500080000000024
:100020000000000000000000000000008F05000834
:1000300091050008000000009305000895050008E0
:10004000175B0008175B0008175B0008595500088C
:10005000175B0008175B0008172C0008175B0008E7
:10006000175B0008175B0008175B0008175B0008A8
:10007000175B0008175B0008175B0008175B000898
:10008000175B0008175B0008175B0008175B000888
:10009000175B0008175B0008175B0008C32B0008FC
:1000A000175B0008175B0008175B0008175B000868
:1000B000B32C00082D2D0008175B0008175B000803
:1000C000175B0008175B0008175B0008175B000848
:1000D000175B00089B570008175B0008175B0008B8
:1000E000E92B0008175B0008175B0008175B000886
:1000F000175B0008175B0008175B0008175B000818
:10010000175B0008175B0008175B0008175B000807
:10011000175B0008175B0008175B0008175B0008F7
:10012000175B0008175B0008175B0008175B0008E7
:10013000DFF80CD00AF010FD0048004795010008D8
:100140006093002008B51023ABA20121042009F020
:100150002AFE1823B2A21E210E2009F024FE4220FE
:10016000DC23B64A502100902D2009F0A0FD102379
:10017000B3A2AA210A2009F016FE1023B9A2C821B1
:100180000A2009F010FE10239BA2DF21042009F0B1
:100190000AFE08BD08B505F001FA4FF4A06006F0AC
:1001A00043FA4FF4E13005F0A2FA41F61F41C720AF
:1001B00002F050FD41F61F41632002F08AFD00F07D
:1001C00041FE03F075F909F020FF09F0E6FC1F215C
:1001D0004FF6FF7009F0C2FC04E0ACA21E21022021
:1001E00007F0DDFD05F0C6FB0028F6D1FFF7AAFFFA
:1001F0004FF47A7005F00FFA4FF47A7005F00BFAAD
:1002000009F0C6FC4FF4007005F0D0FBA44908606B
:100210000846006820B9A3A21E21022007F0BFFDF6
:100220004FF4806009F080FFA2490860642009F063
:100230007BFFA149086049E04FF480629F499848DC
:10024000006805F0E0FB9E4908804FF48062994801
:1002500001689348006805F015FC9A4908809548A4
:10026000006880780090934800684378914800685F
:10027000027895A1904800680AF0CAFC0C238E48C9
:1002800032210268022009F08EFD8548006897A19E
:100290004268894800680AF0BBFC0C238648462166
:1002A0000268022009F07FFD7D48006883687C4871
:1002B000006893A1C268804800680AF0A9FC0C237A
:1002C0007D485A210268022009F06DFDB4E71CB593
:1002D0000446684606F0F1FB4CB948F22100009054
:1002E00000208DF80600684606F0A0FB20E048F2EA
:1002F000210006F012FC00208DF8040048F22000D6
:1003000000900C208DF8050001208DF8060068464D
:1003100006F08CFB00208DF80400012000900820DE
:100320008DF8050001208DF80600684606F07EFB7A
:100330001CBD38B5002500F03AFC09F029FC1CE092
:1003400078480078012818D10020764908700024E8
:100350000BE0684605F0AFF920B19DF80000724946
:10036000085500E004E0601C84B2B4F5C87FF0DBFF
:1003700000BF00F086FC00B10125002DE0D0102365
:100380001DA20121042009F00EFD10231AA229212B
:10039000042009F008FD182364A23F21A02009F0E1
:1003A00002FD182364A26221A02009F0FCFC18239E
:1003B00064A28521A02009F0F6FC182365A2A821DB
:1003C000A02009F0F0FC182366A2B421184609F019
:1003D000EAFC102308A2DF21042009F0E4FC10232A
:1003E00062A2D021282009F0DEFC00F0E4F901210E
:1003F000880706F0CBFF38BD2A2A2A2A2A2A2A2A69
:100400002A2A2A2A2A2A2A2A2A2A2A2A2A2A2A2A4C
:100410002A2A2A2A2A2A2A2A2A2A2A2A2A2A2A0066
:10042000202020D6C7C4DCD2C7B1EDCEEFC1AACD03
:10043000F8CDF8B9D8202020000000001080010875
:10044000202020202020202020202020C9E8B1B812
:10045000C1AACDF8D6D02E2E2E202020202020205C
:1004600020202000202020C9C2CEF7CBB9B4EFB79E
:10047000C0B1ACB0B2C8ABBFC6BCBCB9C9B7DDD3A4
:10048000D0CFDEB9ABCBBE2020000000466F6E742B
:1004900020557064617465204661696C6564210053
:1004A0001C040020C3BBD3D0B4B4BDA8B3C9B9A643
:1004B0002100000014000020180400201800002073
:1004C0000E000020100000204E7562313A253033B6
:1004D00064202C4E7562323A25303364202C4E75E0
:1004E00062333A25303364202E0000006275666660
:1004F00065722D3E73697A653A25303364000000D9
:100500006275666665722D3E6F75743A2530336488
:100510002C6275666665722D3E696E3A25303364CD
:10052000000000002E070020A2070020CEC2B6C89F
:10053000A3BA202020200000CAAAB6C8A3BA20204F
:1005400020200000B7E7C1A6A3BA20202020202049
:1005500000000000B7E7CFF2A3BA2020202020201F
:1005600000000000B3C7CAD03A2000003C4C6173C1
:10057000745570646174653E00000000704700BFF0
:10058000FEE700BFFEE700BFFEE700BFFEE77047E3
:1005900070477047704700000CB500200190009034
:1005A0006C48006840F480306A49086000BF6948C0
:1005B000006800F4003000900198401C0190009801
:1005C00018B90198B0F5A06FF1D16248006800F445
:1005D000003010B10120009001E000200090009850
:1005E000012843D15C48006840F010005A49086077
:1005F0000846006820F0030008600846006840F0E4
:100600000200086053484068524948600846406804
:1006100048600846406840F480604860084640688A
:1006200020F47C1048600846406840F4E8104860B8
:100630000846006840F08070086000BF45480068C8
:1006400000F000700028F9D04248406820F0030014
:10065000404948600846406840F00200486000BFDA
:100660003C48406800F00C000828F9D10CBD10B5DA
:10067000FFF792FF10BD10B53648006840F001004A
:1006800034490860084640683449084031494860A8
:1006900008460068324908402E490860084600684C
:1006A00020F4802008600846406820F4FE0048607E
:1006B0004FF41F008860FFF7DAFF4FF00060294910
:1006C000086010BD10B5002100200022214B5B689E
:1006D00003F00C0121B1042906D0082928D107E034
:1006E000214B224C236027E01F4B204C236023E04A
:1006F000184B5B6803F47010164B5B6803F4803290
:10070000022303EB904022B9194B4343174C23605B
:100710000DE0104B5B6803F4003323B1144B4343EB
:10072000124C236003E0104B4343104C236003E062
:100730000D4B0E4C236000BF00BF064B5B68C3F33C
:1007400003130C4CE15C094B1B68CB40074C236046
:1007500010BD000000100240002002400000FFF821
:10076000FFFFF6FE08ED00E000127A0020040020F2
:1007700000093D002404002070B50024282009F061
:10078000D3FC0546C8230222AEA1AFA002F007FBAE
:10079000B2A3B3A2B7A128460AF03AFAC8230322AB
:1007A000BCA1284602F0FBFA00B10124284609F05A
:1007B000AFFC204670BD10B5C8230322A1A1B9A08B
:1007C00002F0EDFA18B1BBA1C5A00AF011FA10BDF4
:1007D0002DE9F04F87B0642009F0A6FC0490642056
:1007E00009F0A2FC0390C4A1C54809F051FD009096
:1007F00003F0DEFC0690069800287CD0C1A1069884
:1008000004F0DCF805900598C068062873D1BFA1F4
:10081000059804F0D3F88146D9F80C0004280FD1CC
:100820006421039809F01DFDBBA1D9F8102003989D
:100830000AF0EEF91023D0218C20039A09F0B3FAC4
:10084000B6A1059804F0BAF80446E06804281CD163
:100850006421049809F005FD6421039809F001FD65
:10086000206909F031FD009002AB2069039A0099DC
:1008700004F04AFCA8A1DDE903200AF0C9F9182315
:10088000B4215420049A09F08EFAA7A1059804F027
:1008900095F80646F06804281ED1A5A1306909F034
:1008A000F7FC50B150200346A24A64210090282052
:1008B00009F0FDF9382001900EE09FA1306909F0A0
:1008C000E7FC48B1502003469C4A64210090282050
:1008D00009F0EDF94420019099A1059804F06EF813
:1008E0000546E86804281ED16421049809F0B9FC83
:1008F0006421039800E097E009F0B3FC286909F04F
:10090000E3FC009002AB2869039A009904F0FCFB19
:100910008CA1DDE903200AF07BF918233F21049A1A
:10092000019809F040FA89A1059804F047F880463B
:10093000D8F80C0004281ED16421049809F091FC19
:100940006421039809F08DFCD8F8100009F0BCFC74
:10095000009002ABD8F81000039A009904F0D4FB81
:1009600078A1DDE903200AF053F918238721E1205B
:10097000049A09F018FA76A1059804F01FF80746C2
:10098000F86804281CD16421049809F06AFC6421E9
:10099000039809F066FC386909F096FC009002ABF8
:1009A0003869039A009904F0AFFB66A1DDE90320E2
:1009B0000AF02EF91823AA21E120049A09F0F3F98C
:1009C00064A1059803F0FAFF8246DAF80C000428C7
:1009D00010D16421039809F044FC5FA360A1DAF808
:1009E000102003980AF014F918233F21E920039AF4
:1009F00009F0D9F95CA1059803F0E0FF8346DBF824
:100A00000C00042810D16421039809F02AFC57A394
:100A100053A1DBF8102003980AF0FAF8182362219A
:100A2000E920039A09F0BFF9069802F0BFFD049887
:100A300009F06EFB039809F06BFB002007B0BDE8DE
:100A4000F08F00004F4B000041542B485454504449
:100A5000455354524F59203D20300000383000009B
:100A60006170692E79797469616E71692E636F6D39
:100A70000000000041542B48545450435245415407
:100A8000453D302C22687474703A2F2F25733A2517
:100A9000732200002B485454504352454154453A68
:100AA0002030000041542B48545450434F4E203DB9
:100AB000203000002F6F6273657276653F63697442
:100AC000793D4348313130313031266B65793D67AE
:100AD0006138366E3174333031723263767376003A
:100AE00041542B4854545053454E443D302C302CE7
:100AF00034382C25730D0A007B22636F6465000077
:100B0000A207002064617461000000006C617374CE
:100B10005570646174650000257300006369747921
:100B20004E616D65000000006E756D74710000000F
:100B3000303100004887010830320000688A01081F
:100B4000747100002573202020000000666C0000F6
:100B500066780000717700002020A1E60000000008
:100B60002573257300000000736400002020250019
:100B700070B50024282009F0D7FA0546C8230222C0
:100B800081A182A002F00BF985A386A289A1284643
:100B90000AF03EF8C82303228EA1284602F0FFF88F
:100BA00000B10124284609F0B3FA204670BD10B503
:100BB000C823032274A18BA002F0F1F818B18D496B
:100BC0008DA00AF015F810BD0246012001E0504347
:100BD000491E0029FBDC7047F0B505462C4600E0B5
:100BE000641C20780028FBD100260027641E09E041
:100BF00039460A20FFF7E8FF2178303901FB00660B
:100C00007F1C641EAC42F3D23046F0BD70B586B096
:100C10000546029502A809F027FE0446A08A64381A
:100C200080B2ADF81000207C401CC0B28DF81200DC
:100C3000207B8DF81300207A0830C0B28DF80C00AC
:100C400020798DF80D0020788DF80E0006F089FED1
:100C500006F0D6FE9DF80E009DF80D10CDE90010AF
:100C60009DF80C309DF813209DF81210BDF810600F
:100C700006F5FA66B0B204F0B2FB06F07BFE06B0F1
:100C800070BD2DE9F84F4FF00008642009F04CFAD0
:100C90008246642009F048FA81465DA15F4809F068
:100CA000F7FA834603F084FA0746002F3CD05CA194
:100CB000384603F083FE0646F068062832D15AA172
:100CC000304603F07BFE0546E868042805D1286914
:100CD000FFF782FF8346FFF799FF56A1304603F0E6
:100CE0006DFE0446E06804281CD16421504609F0DA
:100CF000B8FA6421484609F0B4FA206909F0E4FA28
:100D000083466B464A465946206904F0FDF94A4637
:100D10004AA1504609F07CFF18234A461121EB20D6
:100D200009F041F84FF00108384602F03FFC504608
:100D300009F0EEF9484609F0EBF94046BDE8F88FB6
:100D400010B59CB004F0D3FABDF8080064300990E7
:100D50009DF80A00401E08909DF80B0007909DF832
:100D60000400083806909DF8050005909DF80600DF
:100D7000049004A809F008FA0446224630A10FA8FE
:100D800009F046FF1CB010BD4F4B000041542B48EA
:100D900054545044455354524F59203D2031000083
:100DA000383000006170692E6B3738302E636F6DFC
:100DB0000000000041542B485454504352454154C4
:100DC000453D302C22687474703A2F2F25733A25D4
:100DD000732200002B485454504352454154453A25
:100DE0002031000041542B48545450434F4E203D75
:100DF00020310000DC94010841542B4854545053D6
:100E0000454E443D312C302C34382C25730D0A00CE
:100E10007B2273756363657373000000A207002073
:100E2000726573756C74000074696D657374616DBF
:100E3000700000007765656B5F320000257300006D
:100E40002575000008B50121242005F085F94FF42F
:100E50008070ADF8000010208DF8030003208DF89D
:100E600002006946094804F0BBFE4FF48071074850
:100E700004F063FF0420ADF800006946044804F064
:100E8000AFFE0421024804F058FF08BD00080140ED
:100E90000014014001B54FF48070FE4948614000E4
:100EA0004861BDF80000FC4908608020F9494861AC
:100EB00008618000086108BD01B54FF48070F549F4
:100EC000086140004861BDF80000F34908608020D7
:100ED000F049486108618000086108BD10B54FF015
:100EE0008830ED490C390860091D08600020EA4986
:100EF00008608815E7490861400048614020486162
:100F0000022004F064FBE448001F006884B2402023
:100F1000E0490861C00008614FF03330DE490C3908
:100F20000860091D08604FF6FF70DB490860204625
:100F300010BD10B504460A462046FFF7ABFF104629
:100F4000FFF7BAFF10BD10B504462046FFF7A2FF19
:100F5000FFF7C4FF10BD00BF0100A0F10102D0B235
:100F6000FAD1704700B52920FFF794FF00BD00B506
:100F70002820FFF78FFF00BD00B502463620FFF79F
:100F800089FF4AB9A820FFF797FFF020C34948809E
:100F90004FF4A070088022E0012A09D16820FFF7F1
:100FA0008BFFF020BD4948804FF4A070088016E008
:100FB000022A09D1C820FFF77FFF4FF4A070B7497C
:100FC0004880F02008800AE0032A08D10020FFF7BB
:100FD00073FF4FF4A070B1494880F020088000BD35
:100FE00070B505460C461E462A20FFF753FF28120F
:100FF000FFF762FF2846FFF75FFFA919491EC1F3FB
:101000000F20FFF759FFA919491E88B2FFF754FFB7
:101010002B20FFF73FFF2012FFF74EFF2046FFF780
:101020004BFFA118491EC1F30F20FFF745FFA11880
:10103000491E88B2FFF740FF70BD10B502460C464E
:101040002A20FFF727FF1012FFF736FFD0B2FFF775
:1010500033FF1012FFF730FFD0B2FFF72DFF2B2028
:10106000FFF718FF2012FFF727FFE0B2FFF724FF7A
:101070002012FFF721FFE0B2FFF71EFF10BD70B591
:1010800005460E46144631462846FFF7D6FF2C206B
:10109000FFF700FF2046FFF70FFF70BD30B5014698
:1010A00001F01F04C1F34513CA0AE50205EB43151D
:1010B0001544A8B230BD2DE9F04106460F46002484
:1010C0000025A04639463046FFF7B7FF2E20FFF730
:1010D000E1FEFFF703FF04460220FFF73CFFFFF7A6
:1010E000FDFE04460220FFF736FFFFF7F7FE8046BD
:1010F000E5B24FF6FF7000EA0525E012C002A91222
:1011000040EA411040EAE820BDE8F08170B50546AC
:10111000002462480388428800210846FFF760FFE8
:101120002C20FFF7B7FE5D4909885C4A528801FB15
:1011300002F0C11700EB5171CE1000BF18E0284635
:10114000FFF7BAFE2846FFF7B7FE2846FFF7B4FEC2
:101150002846FFF7B1FE2846FFF7AEFE2846FFF708
:10116000ABFE2846FFF7A8FE2846FFF7A5FE641C45
:10117000B442E4D370BD08B5D320FFF78BFEFFF770
:10118000ADFEFFF7ABFEC0B28DF80000FFF7A6FE84
:10119000C0B28DF80100FFF7A1FEC0B28DF80200C9
:1011A0009DF802009DF8011040EA012008BD08B535
:1011B0000121192004F0D0FF0121394804F0E1FD9C
:1011C0004FF4F860ADF8000010208DF80300032004
:1011D0008DF8020069462F4804F002FD4FF4F861D3
:1011E0002C4804F0AAFD4FF6FF70ADF800006946E8
:1011F00029480C3804F0F4FC4FF6FF7126480C38EF
:1012000004F09BFD322004F006FAFFF7B4FF2349F7
:101210008880CF20FFF73EFE0020FFF74DFEC12063
:10122000FFF74AFE3020FFF747FEED20FFF732FEC2
:101230006420FFF741FE0320FFF73EFE1220FFF778
:101240003BFE8120FFF738FEE820FFF723FE8520D4
:10125000FFF732FE1020FFF72FFE7A20FFF72CFE5B
:10126000CB20FFF717FE3920FFF726FE2C20FFF7D3
:1012700023FE0020FFF720FE3420FFF71DFE022092
:10128000FFF71AFEF720FFF705FE2020FFF714FEF8
:10129000EA2007E0001001400C0C01406807002024
:1012A00000023000FFF7F6FD0020FFF705FE0020EA
:1012B000FFF702FEC020FFF7EDFD1B20FFF7FCFD4E
:1012C000C120FFF7E7FD0120FFF7F6FDC520FFF77E
:1012D000E1FD3020FFF7F0FD3020FFF7EDFDC720E6
:1012E000FFF7D8FDB720FFF7E7FD3620FFF7D2FD67
:1012F0004820FFF7E1FD3A20FFF7CCFD5520FFF72E
:10130000DBFDB120FFF7C6FD0020FFF7D5FD1A2059
:10131000FFF7D2FDB620FFF7BDFD0A20FFF7CCFD99
:10132000A220FFF7C9FDF220FFF7B4FD0020FFF770
:10133000C3FD2620FFF7AEFD0120FFF7BDFDE02035
:10134000FFF7A8FD0F20FFF7B7FD2A20FFF7B4FD38
:101350002820FFF7B1FD0820FFF7AEFD0E20FFF7B4
:10136000ABFD0820FFF7A8FD5420FFF7A5FDA9203D
:10137000FFF7A2FD4320FFF79FFD0A20FFF79CFD2A
:101380000F20FFF799FD0020FFF796FD0020FFF7E3
:1013900093FD0020FFF790FD0020FFF78DFDE12079
:1013A000FFF778FD0020FFF787FD1520FFF784FD8C
:1013B0001720FFF781FD0720FFF77EFD1120FFF7C3
:1013C0007BFD0620FFF778FD2B20FFF775FD5620EB
:1013D000FFF772FD3C20FFF76FFD0520FFF76CFD66
:1013E0001020FFF769FD0F20FFF766FD3F20FFF794
:1013F00063FD3F20FFF760FD0F20FFF75DFD2B2011
:10140000FFF748FD0020FFF757FD0020FFF754FDD0
:101410000120FFF751FD3F20FFF74EFD2A20FFF787
:1014200039FD0020FFF748FD0020FFF745FD0020B3
:10143000FFF742FDEF20FFF73FFD1120FFF72AFDE8
:10144000782004F0E8F82920FFF724FD0020FFF7BA
:1014500093FD4FF40041F74804F06FFC0020FFF7C4
:1014600055FE08BD2DE9F04F86B004460D461646E0
:101470001F46294620460F9AFFF701FEB44204D1C9
:10148000BD4202D106B0BDE8F08F00200190A64217
:1014900002DBA6EB040801E0A4EB0608AF4202DB86
:1014A000A7EB050901E0A5EB0709C8450CDA012106
:1014B000019120462C46054630463E4607461FFA17
:1014C00088F0C846814600BFA64201DD012001E048
:1014D0004FF0FF300590AF4201DD012001E04FF0F9
:1014E000FF300490A24600954FEA49000390A9EB13
:1014F0000800400002900398A0EB080B1EE0BBF12F
:10150000000F02DA0398834405E004990098084428
:10151000009002988344019838B11FFA8AF1009A2A
:1015200090B20F9AFFF7ABFD06E0009A91B21FFA56
:101530008AF00F9AFFF7A3FD05988244B245DED1E9
:1015400000BF9FE7BC4840887047BB480088704791
:101550002DE9F0410446884615461E46281B401CCE
:1015600083B2012241462046FFF73AFD2C20FFF7C7
:1015700091FC002704E03046FFF79EFC781C87B200
:10158000281B401CB842F6DCBDE8F0812DE9F04193
:1015900080460D4616461F462C4606E03A46214632
:1015A0004046FFF76CFD601C84B2B442F6DDBDE836
:1015B000F0812DE9F0410746884614461D46234632
:1015C000012241463846FFF70BFD2C20FFF762FC55
:1015D000002605E035F8020BFFF76EFC701C86B2A2
:1015E000A642F7DBBDE8F0812DE9F04706468A46C2
:1015F00017461C4651463046FFF71FFD2C20FFF7CB
:1016000049FC4FF00008C1461AE034F8025B1DB1F6
:101610002846FFF751FC0BE006EB090188B2514662
:10162000FFF70BFD2220FFF735FC2846FFF744FCAF
:1016300008F101001FFA80F809F101001FFA80F992
:10164000B845E2DBBDE8F0872DE9F84104460D46D8
:1016500016461F46DDF81C80E019401E82B22B465C
:1016600029462046CDF80080FFF7FCFEA819401E51
:1016700083B2E019401E82B2A819401E81B22046F2
:10168000CDF80080FFF7EEFEA819401E83B2224677
:1016900029462046CDF80080FFF7E4FEA9198BB259
:1016A000E119491E8AB2E119491E88B22946CDF8CE
:1016B0000080FFF7D7FEBDE8F8812DE9F047064628
:1016C0000F4690469A460320A0EB48090024454661
:1016D00046E07A1991B2321990B25246FFF7CFFC28
:1016E0007A1B91B2321990B25246FFF7C8FC7A19B0
:1016F00091B2321B90B25246FFF7C1FC7A1B91B2F5
:10170000321B90B25246FFF7BAFC3A1991B27219E5
:1017100090B25246FFF7B3FC3A1B91B2721990B2E5
:101720005246FFF7ACFC3A1991B2721B90B2524686
:10173000FFF7A5FC3A1B91B2721B90B25246FFF71D
:101740009EFCB9F1000F04DA062000EB840081440E
:1017500005E0601B0A2101EB800081446D1E641CC2
:10176000AC42B6D9BDE8F0872DE9F0470746884678
:1017700014461D46DDF820902B4622464146384649
:10178000FFF72EFC2C20FFF785FB002603E04846E0
:10179000FFF792FB761C04FB05F0B042F7D8BDE8DA
:1017A000F0872DE9F84F80460E4617461C46B34693
:1017B0002046E31704EB5373DB1021464FEAE47C29
:1017C00004EB5C7C4FEAEC0CA4EBCC0CBCF1000FFE
:1017D00002D04FF0010C01E04FF0000C63442246B0
:1017E00004EBD27C4FEA6C0C03FB0CF3DBB20093EE
:1017F000A7F12000C7B2002561E00C2C07D107EB50
:1018000047000E4901EB800010F805901EE0102CF7
:1018100005D10B4800EB071010F8059016E0182CC6
:1018200012D107EBC700074901EB800010F80590C3
:101830000CE00000000C014068070020FCC000081C
:1018400070C5000860CB0008BDE8F88F4FF0000AB3
:101850002FE009F0800030B1F84802883146404658
:10186000FFF70DFC07E00A9828B9F54802883146D1
:101870004046FFF704FC4FEA49604FEA1069701CCC
:1018800086B2F0484088B04200DCDDE7A6EB0B00F2
:10189000A0420AD15E4608F101001FFA80F8E9482B
:1018A0000088404500DCCFE706E00AF1010000F0C7
:1018B000FF0ABAF1080FCCDB00BF681CC5B2009864
:1018C00085429ADB00BFBFE710B50246012000E069
:1018D00050430B00A1F10104E1B2F9D110BD2DE993
:1018E000FF4F81B0074691461E460E9D4FF0000AFD
:1018F000002439E0301B401EC1B20A20FFF7E4FF8C
:10190000B9FBF0F00A21B0FBF1F201FB1208BAF1C9
:10191000000F16D1701EA04213DDB8F1000F0ED1DA
:101920000020AB4605EBDB71491001FB0471009010
:1019300088B22B4620220299FFF733FF12E04FF0C6
:10194000010A0020AB4605EBDB71491001FB047175
:10195000009088B208F13001CAB22B460299FFF715
:1019600020FF00BF601CC4B2B442C3DB05B0BDE8B9
:10197000F08F2DE9FF4F82B0064692461F46DDE903
:101980000F480020019000254DE0781B401EC1B299
:101990000A20FFF799FFBAFBF0F00A21B0FBF1F241
:1019A00001FB1209019850BB781EA84227DDB9F14E
:1019B000000F22D108F0800078B108F00100A346A2
:1019C00004EBDB71491001FB0561009088B22346EE
:1019D00030220399FFF7E5FE0EE008F00100A34670
:1019E00004EBDB71491001FB0561009088B22346CE
:1019F00020220399FFF7D5FE13E00120019008F0A3
:101A00000100A34604EBDB71491001FB0561009066
:101A100088B209F13001CAB223460399FFF7C1FE2B
:101A200000BF681CC5B2BD42AFDB06B0BDE8F08F99
:101A30002DE9F84704460D4690469946DDE90967C9
:101A400004F0FF0A08EB04001FFA80F809EB050018
:101A50001FFA80F916E0444502DB5446A81985B206
:101A60004D4500DB14E0002000903A7833462946CB
:101A70002046FFF796FE304606EBD07104EB61017D
:101A80008CB27F1C38787E2802DC38782028E2DA95
:101A900000BFBDE8F8872DE9F04780468946144627
:101AA0001D46DDF820A000262B462246494640462A
:101AB000FFF796FA574600BF06E037F8022B494673
:101AC0004046FFF7DCFA761C04FB05F0B042F4D880
:101AD0005C480388428800210846FFF781FABDE888
:101AE000F0872DE9F0470746884615460024002672
:101AF000A24619E0295D601C285C01EB00201FFA5A
:101B000080F9B6F5487F04DB00260AF101001FFAD0
:101B100080FA08EB0A0291B2BA1990B24A46FFF76E
:101B2000AEFA701C86B2A41C47488442E2D3BDE8DA
:101B3000F0872DE9F05F81460F4614462046E217F4
:101B400004EB5272D2102146E31704EB5373DB10FF
:101B5000A4EBC3030BB1012300E000231A4462434A
:101B600002F0FF0B99F8006009F101008146057849
:101B7000812E05DB402D03DBFF2D01D0FF2E0DD183
:101B80004FF0000A06E0002007F8010B0AF10100FF
:101B900000F0FF0ADA45F6DBBDE8F09F7F2D03DA9F
:101BA000A5F14000C5B202E0A5F14100C5B2A6F121
:101BB0008100C6B2BE2000FB065000FB0BF80C2CC7
:101BC00004D0102C0CD0182C1ED113E01F48D0F8D4
:101BD000090000EB08011822384600F064FA13E00F
:101BE0001A48D0F8110000EB08012022384600F016
:101BF0005AFA09E01548D0F8190000EB080148220C
:101C0000384600F050FA00BF00BF00BFC4E72DE91E
:101C1000FF4F93B005460F461C46AA462046E217E2
:101C200004EB5272D2102146E31704EB5373DB101E
:101C3000A4EBC30363B101230BE0000046070020BF
:101C4000480700206807002000B80B00900B002018
:101C500000231A44624302F0FF0B0C2C06D0102C18
:101C600004D0182C02D017B0BDE8F08F224601A98D
:101C70001598FFF75EFF00262DE001A810F80680FA
:101C80004FF0000921E008F0800030B131480288AF
:101C900039462846FFF7F3F905E02F480288394610
:101CA0002846FFF7ECF94FEA48604FEA1068681CD5
:101CB00085B2A5EB0A00A04203D15546781C87B235
:101CC00006E009F1010000F0FF09B9F1080FDADBC5
:101CD00000BF701CC6B25E45CFDB00BFC3E72DE975
:101CE000F84306460F4614461D46B0464FF000091D
:101CF0002BE0B9F1000F1DD12078802802DD4FF0D4
:101D0000010922E020780D2804D1781987B24646CF
:101D1000641C07E00020009022782B4639463046AC
:101D2000FFF73FFD641C284605EBD07106EB61010F
:101D30008EB20AE04FF000092B4622463946304663
:101D4000FFF765FFA41C701986B220780028D0D157
:101D5000BDE8F883460700204807002010B5F2A030
:101D600008F046FF002010BD10B504464FF4805027
:101D7000F749086009E0F6490868411EF44A116015
:101D800018B9FFF7EBFFC0B210BD0221F14804F013
:101D900008FE0028EFD02146EE4804F0AFFD4FF4D6
:101DA0008050EB49086009E0E9490868411EE84AAB
:101DB000116018B9FFF7D2FFC0B2E5E70121E5488D
:101DC00004F0EFFD0028EFD0E24804F099FDC0B226
:101DD000DAE72DE9F0410024002500260027042140
:101DE000DD4803F0ACFF9F20FFF7BEFFFF20FFF7A9
:101DF000BBFF0546FF20FFF7B7FF0646FF20FFF7B2
:101E0000B3FF07460421D44803F097FF280440EAB3
:101E1000062040EA07042046BDE8F08108B501210C
:101E2000042004F099F90420ADF8000010208DF88A
:101E3000030003208DF802006946C74803F0D0FE76
:101E40000421C54803F079FF00F01DFA082000F0D6
:101E500050FAFFF7BEFFC149884201D1002008BDFA
:101E60000120FCE710B500240421BB4803F067FF04
:101E70000520FFF779FF4FF48050B549086000BF97
:101E8000FF20FFF771FF0446B1490868411EB04AC0
:101E9000116010B9FFF762FF10BD04F001000028C7
:101EA000EED10421AC4803F048FF00BFF4E710B5C1
:101EB0000421A94803F043FF0620FFF755FF042142
:101EC000A54803F03AFF10BD10B50446FFF7EFFF39
:101ED000FFF7C8FF0421A04803F031FF2020FFF7DF
:101EE00043FFC4F30740FFF73FFFC4F30720FFF7AA
:101EF0003BFFE0B2FFF738FF0421974803F01DFFD6
:101F0000FFF7B0FF10BD10B5FFF7D1FF04219248D5
:101F100003F015FFC720FFF727FF04218E4803F0C9
:101F20000CFFFFF79FFF10BD70B505460C46164627
:101F3000FFF7BDFF0421884803F001FF0220FFF7EF
:101F400013FFC4F30740FFF70FFFC4F30720FFF7A9
:101F50000BFFE0B2FFF708FFB6F5807F01DD4FF41D
:101F6000807603E02878FFF7FFFE6D1C3000A6F1B5
:101F700001018EB2F6D10421774803F0DEFEFFF7AF
:101F800071FF70BD2DE9F05F07460E4614464FF015
:101F90000008C146C2460025AB4606F0FF0ACAF15A
:101FA0000000C5B22046E11704EB1161C1F3072818
:101FB000E11704EB11610912A4EB012101F0FF0903
:101FC000BAF1000F20D1B8F1000F05D122463146F9
:101FD0003846FFF7A9FF64E009E04FF4807231460C
:101FE0003846FFF7A1FF06F5807607F580775FEAB0
:101FF0000800A8F1010101F0FF08EED14A46314680
:102000003846FFF791FF4CE0B8F1000F18D1A94511
:1020100010DDA9EB050000F0FF0B2A4631463846DB
:10202000FFF782FF2E442F445A4631463846FFF7C9
:102030007BFF36E0224631463846FFF775FF30E039
:10204000601B84B22046E11704EB1161C1F307283D
:10205000E11704EB11610912A4EB012101F0FF0962
:102060002A4631463846FFF75FFF2E442F4409E0E9
:102070004FF4807231463846FFF756FF06F58076FA
:1020800007F580775FEA0800A8F1010101F0FF0879
:10209000EED1B9F1000F04D04A4631463846FFF779
:1020A00043FFBDE8F09F70B505460C461646042177
:1020B000294803F044FE0320FFF756FEC4F307400F
:1020C000FFF752FEC4F30720FFF74EFEE0B2FFF722
:1020D0004BFE04E0FF20FFF747FE28706D1C300028
:1020E000A6F10106F6D104211B4803F026FE70BDBF
:1020F00010B500240421184803F021FEAB20FFF79F
:1021000033FEFF20FFF730FEFF20FFF72DFEFF20FC
:10211000FFF72AFEFF20FFF727FE044604210E48A2
:1021200003F00BFE204610BD3C3C2D464C4153486D
:102130002D4552524F522D3E3E2053504920546956
:102140006D656F7574206572726F72210A000000F0
:102150003404002000300140000801401840EF0026
:1021600010B504460421314803F0E9FD0320FFF7D0
:10217000FBFDC4F30740FFF7F7FDC4F30720FFF7AB
:10218000F3FDE0B2FFF7F0FD10BD10B5FF20FFF743
:10219000EBFD10BD10B504464FF480502449086093
:1021A00008E023490868411E214A116010B9FFF771
:1021B000D5FD10BD02211F4804F0F3FB0028F0D02C
:1021C00021461C4804F09AFB4FF4805018490860DF
:1021D00008E017490868411E154A116010B9FFF759
:1021E000BDFDE6E70121134804F0DBFB0028F0D039
:1021F000104804F085FBDCE710B504210B4803F020
:102200009EFDB920FFF7B0FD0421084803F095FDBD
:1022100010BD10B50421054803F091FDAB20FFF778
:10222000A3FD0421014803F088FD10BD0008014012
:10223000340400200030014070B50546002405E05C
:10224000601CC4B2C82C01DD002070BD02213148E1
:1022500004F0A7FB0028F3D029462E4804F04EFBDB
:10226000002405E0601CC4B2C82C01DD0020ECE7AE
:102270000121284804F095FB0028F3D0254804F0FC
:102280003FFBC0B2E1E708B5012141F2040003F0D1
:1022900063FFE020ADF8000018208DF80300032054
:1022A0008DF8020069461C4803F09AFCE0211A48A8
:1022B00003F043FD0020194908804FF482704880E4
:1022C000002088800220C8800120088140024881C7
:1022D000382088810020C881072008820D4804F03A
:1022E00037FA01210B4804F0D8FAFF20FFF7A4FFCA
:1022F00008BD084909884FF6C7721140054A118088
:1023000011460988014311801146098841F04001B6
:10231000118070470030014000080140760700201E
:102320007047F948F949086008460068F849F94AD1
:10233000127841F82200F848F84908607047F8B56B
:102340000026002407F024FCF04800681023B11C8C
:102350000268502007F027FD1A36EC490968087A10
:10236000C11700EB5171EE4A1278B2EBE10F26DA99
:1023700022E0E64800684168E948007804EBC000C4
:1023800000EB800001EB8005286958B10120E54988
:1023900008701823314678202A6807F004FD641C71
:1023A0001A3609E00020DF490870182331462A68F0
:1023B00007F0F9FC641C1A36082CDAD32EE022E070
:1023C000D24800684168D648007804EBC00000EBB2
:1023D000800001EB8005286958B10120D1490870BF
:1023E0001823314678202A6807F0DDFC641C1A3671
:1023F00009E00020CB490870182331462A6807F00D
:10240000D2FC641C1A36C1490968087AC11700EB6E
:102410005171C910A0EBC101A142D1D8BB480068DD
:102420004068C149097801EB810100EB8100BB499B
:10243000086007F0A0FBBB48007801281DD12020D0
:102440000090B6480068202318210269082007F090
:102450004AFCB5480778F81707EB5070C010A7EB97
:10246000C000401C1A2300FB03F1AC48006818238D
:102470000268782007F097FC23E0AB480778F8174C
:1024800007EB5070C010A7EBC000401C1A2300FBE4
:1024900003F1A248006818230268002007F083FCBB
:1024A000A1480778F81707EB5070C010A7EBC000E1
:1024B000401C1A2200FB02F118239CA2A62007F060
:1024C00072FC07F058FB4FF6FF70142340F23F12E6
:1024D00019460090012005F007FD4FF6FF70EF232D
:1024E00040F23F1200210090084605F091FCF8BD33
:1024F00010B58A4800688E49086088480068C0683E
:1025000010B3002088490870854908708348006826
:10251000C0687E49086008460068406882490978BA
:1025200001EB810100EB81007C490860FFF707FFA8
:1025300078480078401C77490870744800687449EE
:10254000744A127841F8220079490968486880473E
:1025500010BD38B56D48006840687349097801EBD3
:10256000810100EB81006D4908606E480078012808
:1025700013D16D480478E01704EB5070C010A4EB41
:10258000C000401C1A2300FB03F1644800681823B4
:102590000268782007F007FC12E063480478E0172F
:1025A00004EB5070C010A4EBC000401C1A2300FBC9
:1025B00003F15A48006818230268002007F0F3FB73
:1025C00059480078002805DD57480078401E5649D4
:1025D000087005E04D480068007A401E52490870B6
:1025E0004A48006840685049097801EB810100EBD6
:1025F00081004A49086007F0BEFA4A48007801287D
:102600001DD1202000904548006820231821026930
:10261000082007F068FB44480478E01704EB50708A
:10262000C010A4EBC000401C1A2300FB03F13B4880
:10263000006818230268782007F0B5FB23E03A48C9
:102640000478E01704EB5070C010A4EBC000401CED
:102650001A2300FB03F131480068182302680020A8
:1026600007F0A1FB30480478E01704EB5070C0106D
:10267000A4EBC000401C1A2200FB02F118232BA27D
:10268000A62007F090FB07F076FA4FF6FF701423B0
:1026900040F23F1219460090012005F025FC4FF64C
:1026A000FF70EF2340F23F1200210090084605F032
:1026B000AFFB1D4800781F49164A1278885438BD70
:1026C00038B51248006840681749097801EB810164
:1026D00000EB8100114908601248007801282BD1D5
:1026E00011480478E01704EB5070C010A4EBC00050
:1026F000401C1A2300FB03F10848006818230268F5
:10270000782007F050FB2AE004070020480400204E
:102710008807002039040020DC0600204004002047
:102720003A0400203F04002038040020A84B000099
:10273000440400203B04002090480478E01704EB98
:102740005070C010A4EBC000401C1A2300FB03F122
:102750008B48006818230268002007F024FB894892
:102760000068007A401E85490978884203DC002011
:102770008249087004E081480078401C7F49087055
:102780008048006840687D49097801EB810100EBD1
:1027900081007B49086007F0EEF97B48007801284A
:1027A0001DD120200090764800682023182102695E
:1027B000082007F098FA71480478E01704EB50708D
:1027C000C010A4EBC000401C1A2300FB03F16C48AE
:1027D000006818230268782007F0E5FA24E06748CB
:1027E0000478E01704EB5070C010A4EBC000401C4C
:1027F0001A2300FB03F162480068182302680020D6
:1028000007F0D1FA5D480478E01704EB5070C0106F
:10281000A4EBC000401C1A2200FB02F11823AFF207
:10282000F402A62007F0BFFA07F0A5F94FF6FF70F3
:10283000142340F23F1219460090012005F054FB8A
:102840004FF6FF70EF2340F23F1200210090084640
:1028500005F0DEFA494800784C494D4A1278885410
:1028600038BD10B5464909688868804748480078EF
:1028700020B947480078401C454908704448007812
:10288000401E444951F820003E490860084600684F
:1028900040683B49086000203C493D4A1278885412
:1028A000364908703A480078401E39490870084691
:1028B000007810B1FFF743FD04E0002032490870B2
:1028C0003549087010BD10B500202C4908703249F8
:1028D000087032482B49086008460068406827495C
:1028E000097801EB810100EB810025490860FFF7C1
:1028F00026FD27480078401C2549087021480068BB
:102900002449234A127841F8220010BD10B588B03E
:10291000044619200190082002904E2003902E209A
:1029200004901FA005900020069001208DF81C0047
:1029300007F02EF901A807F04BFA102322462021B8
:10294000222007F030FA08B010BD10B588B0044658
:102950000020019002904FF4A0700390F0200490AA
:1029600005940020069001208DF81C0007F010F956
:1029700001A807F02DFA08B010BD000038040020AF
:1029800040040020480400203F0400203B040020B5
:1029900039040020880700203A040020D0060020D7
:1029A00020205741524E494E472120001FB501219A
:1029B000142003F0D1FB0121084603F0CDFB0121D7
:1029C0009F4803F0DEF94FF40040ADF80C004820BA
:1029D0008DF80F0003A99B4803F002F92020ADF801
:1029E0000C0048208DF80F0003A9974803F0F8F871
:1029F0000120ADF80C0028208DF80F0003A99148A4
:102A000003F0EEF80521022003F000FA20200090E8
:102A100000208DF804000C208DF8050001208DF8B1
:102A20000600684604F002F80F21002003F0EEF9DA
:102A30004FF40040009000208DF804000C208DF829
:102A4000050001208DF80600684603F0EFFF002125
:102A5000084603F0DBF90120009000208DF8040007
:102A600008208DF8050001208DF80600684603F067
:102A7000DDFF06208DF8080002208DF809008DF892
:102A80000A0001208DF80B0002A803F0D2FD1720E8
:102A90008DF8080002208DF8090001208DF80A0049
:102AA0008DF80B0002A803F0C4FD28208DF8080063
:102AB00002208DF8090000208DF80A0001208DF811
:102AC0000B0002A803F0B5FD1FBD10B5044614B1FC
:102AD00001205E4908705D48007868B320215A489B
:102AE00003F011F958B14FF40041564803F00BF9C7
:102AF00028B10121534803F006F901281CD10A200E
:102B000002F089FD00205149087020214E4803F051
:102B1000FAF808B9012010BD4FF40041494803F00C
:102B2000F2F808B90220F6E70121464803F0EBF875
:102B3000012815D10320EEE72021434803F0E3F8F4
:102B400001280DD1C1033F4803F0DDF8012807D16A
:102B500001213C4803F0D7F810B901203B49087027
:102B60000020D8E710B50121364803F0CCF840B971
:102B700000BF0121334803F0C6F80128F9D0032033
:102B800010BD2021304803F0BEF840B900BF20211D
:102B90002D4803F0B8F80028F9D00220F0E74FF4F0
:102BA0000041284803F0AFF848B900BF4FF4004196
:102BB000244803F0A8F80028F8D00120E0E700201E
:102BC000DEE710B50A2002F026FD202003F094FF76
:102BD00048B120211C4803F096F808B9FFF770FDB2
:102BE000202003F09AFF10BD10B50A2002F013FD5B
:102BF0004FF4004003F080FF60B14FF400411148F2
:102C000003F081F810B90120114908604FF4004029
:102C100003F083FF10BD10B50A2002F0FCFC012078
:102C200003F06AFF50B10121064803F06CF8012857
:102C300001D1FFF78EFC012003F06FFF10BD0000F3
:102C40000002300000080140001001401007002081
:102C5000080000207FB505460C460121084603F018
:102C600088FAADF80850ADF804400020ADF80A002D
:102C7000ADF8060001A94FF0804004F02BF80122C6
:102C80001146900704F09DFB1C208DF800000220E7
:102C90008DF8010000208DF8020001208DF803005E
:102CA000684603F0C6FC00214FF0804004F06EFB44
:102CB0007FBD10B50121880704F031FE40B101212C
:102CC000880704F03DFE22480068401C2049086047
:102CD00010BD7FB505460C460121022003F049FADC
:102CE000ADF80850ADF804400020ADF80A00ADF88A
:102CF000060001A9174803F0EDFF0122114615480F
:102D000004F05FFB1D208DF8000001208DF801000C
:102D100000208DF8020001208DF80300684603F0C2
:102D200088FC00210B4804F031FB7FBD10B5012168
:102D3000084804F0F4FD50B10121064804F000FEFB
:102D40000120054908700021024804F01FFB10BD56
:102D500000000020000400402E070020F8B50546C2
:102D600000260024FE480078012816D100BF0BE0A1
:102D7000684602F0A0FC20B19DF80000F949085512
:102D800000E004E0601CC4B2B4F5C87FF0DB00BF13
:102D90002946F44807F07CFA06463046F8BD2DE98E
:102DA000F04106460D4617461C460020EC490870C7
:102DB000804625E002F05CFC4FF4C871E94807F05A
:102DC00050FA3146E8A007F013FFADB1A4B10DE011
:102DD0000A2002F020FCE2480078012806D12846AB
:102DE000FFF7BCFF10B10120BDE8F081601E80B28A
:102DF0000400EDD104B9F7E708F1010000F0FF0885
:102E0000B845D7DB0020EFE710B500BF4FF4005105
:102E1000D74802F092FF4FF4967002F0FCFB4FF49B
:102E20000051D34802F08BFF4FF4967002F0F3FB91
:102E300064230322CFA1D0A0FFF7B1FF30B1182344
:102E4000CEA228210E2006F0AEFF00E0DEE76423CC
:102E50000322C8A1CDA0FFF7A2FF30B11823CDA255
:102E600028210E2006F09FFF01E0012010BD002068
:102E7000FCE710B564230322BEA1BFA0FFF78FFFBC
:102E800030B11823BDA228210E2006F08CFF01E0EE
:102E9000012010BD0020FCE770B50446002524B1D8
:102EA000012C12D0022C30D11FE014230322B1A137
:102EB000BCA0FFF774FF30B11823B0A228210E2068
:102EC00006F071FF00E0012520E014230322A9A1F0
:102ED000B7A0FFF764FF30B11823A8A228210E2065
:102EE00006F061FF00E0012510E014230322A1A1F8
:102EF000B2A0FFF754FF30B11823A0A228210E2062
:102F000006F051FF00E0012500E000BF00BF2846A9
:102F100070BD10B564230322ABA1ADA0FFF73FFF46
:102F200030B11823ADA228210E2006F03CFF0CE0A2
:102F300064230322ADA1A6A0FFF731FF28B1182317
:102F4000ACA228210E2006F02EFF10BD10B5642380
:102F500003229DA19EA0FFF722FF30B118239FA25C
:102F600028210E2006F01FFF0CE0642303229FA1FE
:102F700097A0FFF714FF28B118239EA228210E2046
:102F800006F011FF10BD10B54FF4C871754807F079
:102F900068F910BD10B5002400BFC823032275A135
:102FA00075A0FFF7FCFE00B9F7E7C823032271A163
:102FB00076A0FFF7F4FEC82303226EA17CA0FFF7E2
:102FC000EEFE28B910238FA228210E2006F0EBFE7A
:102FD00000BFC823032290A192A0FFF7E0FE00B932
:102FE000F7E76423032292A193A0FFF7D8FED8B19C
:102FF0005C48007A30385B49C979303901EB81018E
:1030000000EB41008E49087008460078632803D021
:103010005448C079303820B902E00020884948700F
:10302000FBE7012086494870C823032251A185A0EF
:10303000FFF7B5FE28B1102384A2AA210A2006F0CA
:10304000B2FE10BD10B5002489A1464807F020F952
:103050008A4908600846006828B12421874800682A
:1030600007F028F90446607810BD70B5B2B0044688
:103070000E461546C821684607F0F3F880A1684659
:1030800007F0FAF82146684607F0F6F882A168468C
:1030900007F0F2F83146684607F0EEF87EA1684680
:1030A00007F0EAF82946684607F0E6F87BA168468B
:1030B00007F0E2F8684602F039FC32B070BD10B596
:1030C000B2B00446C821684607F0CBF874A1684640
:1030D00007F0D2F82146684607F0CEF86FA168469F
:1030E00007F0CAF8684602F021FC32B010BD10B5F6
:1030F000B2B00446C821684607F0B3F86CA1684630
:1031000007F0BAF82146684607F0B6F86CA16846A1
:1031100007F0B2F8684602F009FC32B010BD30B5D5
:10312000B3B004460D46C82101A807F09AF866A17D
:1031300001A807F0A1F8214601A807F09DF867A1B2
:1031400001A807F099F8294601A807F095F86BA1A6
:1031500001A807F091F801A802F0E8FB33B030BDF8
:103160002E070020A207002025730D0A0000000092
:10317000001001404F4B000041540000B2E2CAD49D
:10318000B3C9B9A62020202020202000415445307A
:1031900000000000B9D8B1D5BBD8CFD42020202062
:1031A0002020200041542B4346554E3D3000000066
:1031B00041542B4346554E3D3100000041542B43B2
:1031C00046554E3D34000000524541445900000030
:1031D00041542B4350494E3F0D0A000053494DBF07
:1031E000A8D5FDB3A3202020202020004552524F17
:1031F00052000000C3BBD3D053494DBFA8202020AC
:1032000020202000BFAAC6F4CAA7B0DC20202020BE
:1032100020202020200000002B43474154543A2016
:103220003100000041542B43474154543F000000FB
:103230002B4345535100000041542B43455351004B
:103240001807002041542B43535100002020202018
:1032500020202020202020202020C9E8B1B8D2D171
:10326000C1AACDF8202020202020202020202000CE
:103270002B514D54524543560000000014070020C6
:1032800041542B514D544346473D22616C69617551
:103290007468222C302C2200222C2200220D0A00DD
:1032A00041542B514D54434F4E4E3D302C22000083
:1032B00041542B514D545355423D302C312C22005A
:1032C000222C300D0A00000041542B514D54505512
:1032D000423D302C302C302C302C2200222C227BF2
:1032E000706172616D733A7B43757272656E74487A
:1032F000756D69646974793A000000007D7D220073
:103300002DE9F04105460E4617461C463A46314621
:103310002846FFF7AAFE4FF4967002F07CF9FFF7FB
:1033200032FE42A002F002FB4FF4967002F073F9F5
:1033300048A14C4806F0ACFF4B4908600EE0FFF78F
:1033400022FE3AA002F0F2FA4FF4967002F063F90E
:1033500040A1444806F09CFF434908604248006889
:103360000028ECD0FFF70FFE4FF4967002F053F9EF
:103370003EA13C4806F08CFF3B4908600EE0FFF799
:1033800002FE2046FFF79BFE4FF4967002F043F9D1
:103390003AA1344806F07CFF33490860324800689F
:1033A0000028ECD0FFF7EFFDBDE8F08110B5044632
:1033B000FFF7E9FD2046FFF79AFE4FF4967002F002
:1033C0002AF932A1274806F063FF2749086005E083
:1033D0002EA1244806F05CFF2349086022480068BB
:1033E0000028F5D0FFF7CFFD10BD70B504460D469F
:1033F000FFF7C9FD29462046FFF791FE4FF496706E
:1034000002F009F926A1174806F042FF16490860A4
:1034100005E023A1134806F03BFF1349086012485A
:1034200000680028F5D0FFF7AEFD70BD41542B5168
:103430004D544F50454E3D302C223133392E3139C9
:10344000362E3133352E313335222C313838330D89
:103450000A0000002B514D544F50454E3B20302C5C
:1034600030000000A2070020140700202B514D540B
:10347000434F4E4E3A20302C302C30002B514D54BF
:10348000434F4E4E3B20302C302C30002B514D54AE
:103490005355423A20302C312C302C3000000000A3
:1034A0002B514D545055423A20302C302C300000D6
:1034B00008B50121102002F04FFE4FF40050ADF886
:1034C000000010208DF8030003208DF802006946EB
:1034D000044802F085FB4FF40051024802F02FFC33
:1034E00008BD000000100140FE480068704770B53C
:1034F00004460D462CB9AC4201D0012070BD00201D
:10350000FCE70DB90120F9E705E0207808B90020B3
:10351000F4E7641C6D1C207806F030FE064628781F
:1035200006F02CFE8642F0D0207806F027FE0646F4
:10353000287806F023FE301AE0E770B504462046EE
:1035400006F0C2FE451C2846E74909688847060080
:1035500000D170BD2A462146304606F069FE30464D
:10356000F7E730B9E149E04A1160E149E14A116009
:103570007047016809B1016800E0DC49DA4A11606E
:10358000416809B1416800E0D949DA4A116000BFD9
:10359000EEE710B52820D4490968884704461CB1D5
:1035A0002821204606F05DFE204610BD70B5044679
:1035B00022E02568A08900F4807020B9A06810B1CD
:1035C000A068FFF7F3FFA08900F4807028B9206994
:1035D00018B1C849206909688847A08900F40070BB
:1035E00028B9206A18B1C349206A0968884720466B
:1035F000C049096888472C46002CDAD170BD2DE9F6
:10360000F04F8BB083468A460020044605460026CC
:10361000B94F0021884689460990012008909AF800
:1036200000002D2802D1B54F0AF1010A9AF80000D6
:10363000302801D10AF1010A9AF80000312822DB72
:103640009AF8000039281EDC00BF1AF8011BA1F10E
:10365000300007F019F80022A94BCDE906012046F9
:10366000294606F030FFCDE90401DDE9062306F026
:1036700083FE04460D469AF80000302803DB9AF8D2
:1036800000003928E1DD9AF800002E2830D19AF8A0
:10369000010030282CDB9AF80100392828DC0AF1D7
:1036A000010A00BF1AF8011BA1F1300006F0ECFF7F
:1036B0000022934BCDE906012046294606F003FF80
:1036C000CDE90401DDE9062306F056FE04460D4669
:1036D0000022894B4046494606F0EFFE8046894667
:1036E0009AF80000302803DB9AF800003928D9DD69
:1036F0009AF80000652803D09AF80000452823D1E5
:103700000AF1010A9AF800002B2802D10AF1010AF5
:1037100008E09AF800002D2804D14FF0FF300890FF
:103720000AF1010A08E01AF8010B3038099901EB97
:10373000810100EB410009909AF80000302803DB7A
:103740009AF800003928EEDDDDE9082101FB02F0DE
:1037500006F09AFF42464B46CDE9000106F00CFE0A
:1037600002460B46CDE902010020654907F0C4FF7F
:1037700022462B46CDE906013046394606F0A3FE27
:10378000CDE90401DDE9062306F09DFE04460D4661
:10379000CBE906452046294606F087FFCBF8140002
:1037A0000320CBF80C0050460BB0BDE8F08F01466B
:1037B000491E41EA610141EAA10141EA211141EAC0
:1037C000212141EA2141481C70472DE9F04104467E
:1037D0000E460CB1206810B90020BDE8F081A06849
:1037E00006446068B04203DBA16820680844F4E73F
:1037F0003046FFF7DCFF074638463B4909688847F3
:1038000005463DB93B49206809688847002060604B
:103810002060E2E725B12846D4E9001206F008FD51
:10382000344920680968884767602560A068284493
:10383000D3E770B504460CB1206808B9002070BD0C
:10384000A16820684518284606F03EFDA168084496
:10385000F5E72DE9FC4782460E464FF00009DAE90C
:103860000645002213462046294606F051FF13D193
:103870002EB102213046FFF7A8FF814604E0022066
:103880001949096888478146B9F1000F03D01DA086
:103890000088A9F800009FE0DAF8140006F0F4FEB2
:1038A000074622462B4606F008FE21F00041002282
:1038B000154BCDE9000106F02BFF3ED8134A144BFF
:1038C0002046294606F024FF37D80022114B204617
:1038D000294606F035FF30D806B315213046FFF7EC
:1038E00074FF19E01C0700202007002029A1000810
:1038F00011A10008240700200000F03F0000F0BFE5
:1039000000002440300000000000B03C0000C0FF78
:10391000FFFFDF410000E0C1814604E01520FA49C5
:10392000096888478146B9F1000F55D0F7A148468C
:10393000DAF8142007F06CF94EE02EB14021304641
:10394000FFF743FF814604E04020EF4909688847BC
:103950008146B9F1000F3FD02046294607F05EFEB0
:10396000074622462B4606F0A8FD21F00041002222
:10397000E74BCDE9000106F0CBFE0FD825F0004162
:103980002746E44AE44B384606F0C2FE06D22246F9
:103990002B46E2A1484607F03BF91DE025F0004127
:1039A0002746E04AE04B384606F0B2FE07D325F042
:1039B00000410022DD4B384606F0C2FE06D2224608
:1039C0002B46DBA1484607F023F905E022462B46AB
:1039D000D8A1484607F01CF94846BDE8FC870146D7
:1039E00000220878302806DB0878392803DC0878BC
:1039F0003038024415E00878412806DB087846286C
:103A000003DC0878373802440BE00878612806DBCD
:103A10000878662803DC08785738024401E0002063
:103A200070471201491C0878302806DB08783928CD
:103A300003DC08783038024415E00878412806DBBA
:103A40000878462803DC0878373802440BE0087809
:103A5000612806DB0878662803DC087857380244BA
:103A600001E00020DCE71201491C0878302806DB61
:103A70000878392803DC08783038024415E00878E3
:103A8000412806DB0878462803DC087837380244EA
:103A90000BE00878612806DB0878662803DC0878E4
:103AA0005738024401E00020BAE71201491C0878A7
:103AB000302806DB0878392803DC087830380244DF
:103AC00015E00878412806DB0878462803DC0878EA
:103AD000373802440BE00878612806DB087866284E
:103AE00003DC08785738024401E0002098E71046CC
:103AF00096E72DE9F05F8346884608F10104002728
:103B000098F80000222805D08B48C0F800800020DB
:103B1000BDE8F09F04E014F8011B5C2900D1641C8F
:103B20002078222804D0207810B1781C0700F2D128
:103B3000781C7549096888478146B9F1000F01D1A1
:103B40000020E5E708F101044D469EE020785C285E
:103B500004D014F8010B05F8010B96E0641C2078E2
:103B6000722818D006DC622809D066280BD06E288F
:103B70007ED10CE0742812D07528F9D113E008200A
:103B800005F8010B7FE00C2005F8010B7BE00A2013
:103B900005F8010B77E00D2005F8010B73E0092013
:103BA00005F8010B6FE0601CFFF719FF0646241DA6
:103BB000B6F55C4F02D3B6F5604F00D306B962E0AC
:103BC000B6F5584F1CD3B6F55C4F19D260785C2817
:103BD00002D1A078752800D055E0E01CFFF7FFFE69
:103BE0008246A41DBAF55C4F02D3BAF5604F00D3EC
:103BF00049E0C6F30901504661F39F2000F5803685
:103C00000427802E01D2012708E0B6F5006F01D20B
:103C1000022703E0B6F5803F00D203273D44012F81
:103C200020D0022F15D0032F0AD0042F24D106F064
:103C3000BF0040F08001681E05460170B60900BF54
:103C400006F0BF0040F08001681E05460170B6090D
:103C500000BF06F0BF0040F08001681E05460170FD
:103C6000B60900BF3548C05D3043C1B2681E00E0F0
:103C700005E00546017000BF00BF3D4403E0207829
:103C800005F8010B00BF00BF641C2078222803D078
:103C9000207800287FF45AAF00202870207822284E
:103CA00000D1641CCBF810900420CBF80C00204607
:103CB0002EE72DE9F05F804689460027BB46454642
:103CC00011E02878002802DD2878202805DB2878F4
:103CD000222802D028785C2801D1012000E00020B1
:103CE00040EA0B0B6D1C28780028EAD1BBF1000FCD
:103CF0003ED1A5EB0807B9F1000F21D0F91C4846C9
:103D0000FFF763FD064620E0200700202564000041
:103D10000000B03C44F3C2E4E4E9634C252E306675
:103D2000000000008DEDB5A0F7C6B03E65CDCD41D9
:103D300025650000256600001C070020BCDC00088B
:103D4000F81CFD4909688847064616B90020BDE8F9
:103D5000F09F3446222004F8010B4146204606F02D
:103D6000BAFA2220E0550021781C21543046EEE7B3
:103D7000B8F1000F16D1B9F1000F05D00321484664
:103D8000FFF723FD064604E00320EB490968884756
:103D900006460EB90020DAE7E8A1304606F09BFAA5
:103DA0003046D4E745460BE05146E5A006F082FADE
:103DB00008B17F1C03E0BAF1200F00DA7F1D6D1CF3
:103DC00095F800A0BAF1000F02D0781C0700EBD1E3
:103DD000B9F1000F05D0F91C4846FFF7F6FC06467E
:103DE00004E0F81CD4490968884706460EB900204B
:103DF000ADE734464546222004F8010B47E0287819
:103E00001F280ADD2878222807D028785C2804D0CB
:103E100015F8010B04F8010B39E05C2004F8010BE4
:103E200015F8011B8A460C2919D006DC082912D086
:103E3000092920D00A2922D115E00D2917D02229DD
:103E400005D05C291BD15C2004F8010B1EE0222068
:103E500004F8010B1AE0622004F8010B16E066205A
:103E600004F8010B12E06E2004F8010B0EE0722042
:103E700004F8010B0AE0742004F8010B06E0524636
:103E8000B1A1204606F0C4FE641D00BF00BF287823
:103E90000028B4D1222004F8010B002004F8010B03
:103EA000304654E770B504460D4629462069FFF7B1
:103EB00000FF70BD00E0401C20B1017811B1017815
:103EC0002029F8DD70472DE9F04706460C4620789A
:103ED0007B2804D09E4804600020BDE8F0870620BF
:103EE000F060601CFFF7E6FF044620787D2801D1D2
:103EF000601CF2E7FFF74DFB0546B060B06808B9FB
:103F00000020EAE72046FFF7D5FF804641462846D5
:103F1000FFF7EFFD0746FFF7CDFF04460CB9002081
:103F2000DBE7286928620020286120783A2803D03E
:103F3000874804600020D0E7601CFFF7BBFF804685
:103F40004146284600F099F80746FFF7B3FF0446BC
:103F50000CB90020C1E731E0FFF71BFB070000D1DF
:103F6000BBE72F607D603D46601CFFF7A3FF8146E5
:103F700049462846FFF7BDFD8046FFF79BFF0446F4
:103F80000CB90020A9E72869286200202861207860
:103F90003A2803D06E48046000209EE7601CFFF7BB
:103FA00089FF81464946284600F067F88046FFF7BA
:103FB00081FF04460CB900208FE700BF20782C2831
:103FC000CAD020787D2801D1601C86E76048046053
:103FD000002082E72DE9F04705460C4620785B2853
:103FE00004D05B4804600020BDE8F0870520E8604D
:103FF000601CFFF75FFF044620785D2801D1601C3C
:10400000F2E7FFF7C6FA0646A860A86808B90020DC
:10401000EAE72046FFF74EFF80464146304600F073
:104020002CF80746FFF746FF04460CB90020DBE7F3
:1040300017E0FFF7AEFA070000D1D5E737607E60E2
:104040003E46601CFFF736FF81464946304600F089
:1040500014F88046FFF72EFF04460CB90020C3E792
:1040600000BF20782C28E4D020785D2801D1601C86
:10407000BAE7374804600020B6E770B505460C463D
:104080000CB9002070BD042232A1204606F02CF9A4
:1040900018B90220E860201DF4E705222FA1204670
:1040A00006F022F918B90020E860601DEAE7042252
:1040B0002CA1204606F018F920B90120E8606861BB
:1040C000201DDFE72078222804D121462846FFF76B
:1040D00010FDD7E720782D2805D02078302807DB81
:1040E0002078392804DC21462846FFF788FAC9E7FA
:1040F00020785B2804D121462846FFF76BFFC1E7F3
:1041000020787B2804D121462846FFF7DCFEB9E75A
:104110000F4804600020B5E72DE9F04780460D46C2
:1041200016460024FFF735FA0746002008490860C4
:10413000E7B9BDE8F0870000200700202222000038
:10414000225C080C0A0D0900752530347800000047
:104150001C0700206E756C6C0000000066616C73BB
:104160006500000074727565000000004046FFF7AE
:10417000A1FE814649463846FFF77FFF04462CB929
:104180003846FFF713FA0020BDE8F08766B12046F5
:10419000FFF790FE0446207830B13846FFF706FA64
:1041A000FE4804600020EFE705B12C603846EBE7DD
:1041B00010B50446002211462046FFF7ADFF10BDA2
:1041C0002DE9FF4F89B0884616461F46002008900B
:1041D000079006904FF0070A00250998D0F808903C
:1041E000002002900190009004E00298401C029090
:1041F000D9F80090B9F1000FF7D10298002835D115
:1042000057B116B108F1040000E00320014638461A
:10421000FFF7DBFA069009E016B108F1040100E0AF
:1042200003210846DE49096888470690069818B9B0
:1042300000200DB0BDE8F08F069C7B2004F8010B38
:1042400066B10A2004F8010B002503E0092004F8F8
:10425000010B6D1CA8F10100A842F7DC7D2004F8D9
:10426000010B002004F8010B0698E2E7002F77D03D
:10427000BD680EB1022000E0012082460AF1010172
:104280003846FFF7A2FA04460CB90020D1E77B209C
:1042900004F8010B16B10A2004F8010B002020706D
:1042A000B8685044B8600998D0F8089008F101083F
:1042B00068E0B6B141463846FFF787FA04460CB9C4
:1042C0000020B6E70020039005E0092004F8010B68
:1042D0000398401C039003984045F6DBB8684044BF
:1042E000B8603946D9F82000FFF7E3FC3846FFF7FD
:1042F000A0FAB8600EB1022000E0012082465146CB
:104300003846FFF762FA04460CB9002091E73A20DC
:1043100004F8010B16B1092004F8010BB8685044E9
:10432000B8603B4632464146484600F078FA384687
:10433000FFF77FFAB8600EB1012000E00020D9F845
:10434000001009B1012100E0002100EB010A0AF18F
:1043500001013846FFF739FA044614B9002068E72E
:1043600034E0D9F8000010B12C2004F8010B16B18C
:104370000A2004F8010B00202070B8685044B8608F
:10438000D9F80090B9F1000F93D116B108F10100EE
:1043900000E0022001463846FFF717FA04460CB940
:1043A000002046E74EB1002503E0092004F8010B88
:1043B0006D1CA8F10100A842F7DC7D2004F8010B78
:1043C0000020207038682844069005E10299880092
:1043D0007349096888470890089808B9002028E7B9
:1043E000029988006E49096888470790079828B99C
:1043F0006C4908980968884700201AE702988100EC
:10440000089805F02EFF02988100079805F029FF13
:104410000998D0F8089008F1010806B1C2442EE0CE
:104420000021D9F82000FFF744FC0490079941F8D7
:104430002500002332464146484600F0F0F929465F
:104440006D1C0590089A42F82100049898B10598CF
:1044500088B1059805F038FF8346049805F034FFCD
:104460000BEB0001891C16B108F1020000E00020EE
:104470000844824401E001200190D9F80090B9F18C
:10448000000FCDD1019820B95046454909688847A9
:104490000690069808B901200190019818B30025EC
:1044A00014E0079850F8250028B1079951F8250025
:1044B0003C4909688847089850F8250028B10899B0
:1044C00051F825003749096888476D1C02988542D4
:1044D000E7DB344907980968884732490898096832
:1044E00088470020A5E67B21069801700698441CA9
:1044F00016B10A2004F8010B00202070002548E0C6
:104500005EB10020039005E0092004F8010B039838
:10451000401C039003984045F6DB079951F82500AD
:1045200005F0D2FE0090079850F825102046009A1A
:1045300005F07EFE009804443A2004F8010B16B101
:10454000092004F8010B089850F82510204605F0C2
:10455000C2FE089951F8250005F0B6FE0444029801
:10456000401EA84202D02C2004F8010B16B10A20EC
:1045700004F8010B00202070079951F82500094923
:1045800009688847089951F825000649096888474D
:104590006D1C02988542B3DB024905E01C07002030
:1045A0002007002024070020079809688847F7495A
:1045B0000898096888474EB1002503E0092004F8EF
:1045C000010B6D1CA8F10100A842F7DC7D2004F866
:1045D000010B002004F8010B06982AE62DE9FF4F95
:1045E00085B092461E464FF0000B052003900598BB
:1045F000D0F80880D946002500200290019003E001
:1046000009F10109D8F80080B8F1000FF8D1B9F12B
:10461000000F16D12EB103213046FFF7D6F883469E
:1046200004E00320DA49096888478346BBF1000F9C
:1046300003D0D8A1584605F04EFE584609B0BDE853
:10464000F08F002E57D0B56801213046FFF7BDF836
:1046500004460CB90020F1E75B202070B068401CD4
:10466000B0600598D0F808802EE03346524606998F
:10467000491C404600F0D3F83046FFF7DAF8B06046
:10468000D8F80000F0B1BAF1000F01D0022000E02C
:10469000012003900399491C3046FFF796F8044621
:1046A0000CB90020CAE72C2004F8010BBAF1000F66
:1046B00002D0202004F8010B00202070B16803987C
:1046C0000844B060D8F80080B8F1000F02D002981A
:1046D0000028CAD002213046FFF777F804460CB90B
:1046E0000020ABE75D2004F8010B0020207030684B
:1046F00000EB050B91E04FEA8900A549096888475E
:1047000007460FB9002099E74FEA8901384605F0BE
:10471000A8FD0598D0F8088021E0002352460699AC
:10472000491C404600F07BF8049029466D1C049813
:1047300047F82100049870B1049805F0C5FD801C6D
:10474000BAF1000F01D0012100E0002101440398DB
:104750000844039001E001200290D8F80080B8F1ED
:10476000000F02D002980028D7D0029820B98849BB
:104770000398096888478346BBF1000F01D10120E7
:104780000290029890B1002508E057F8250020B16A
:1047900057F825007D49096888476D1C4D45F4DBB5
:1047A00038467A4909688847002047E75B208BF83C
:1047B00000000BF1010400202070002521E057F8D3
:1047C000250005F081FD019057F825102046019A3B
:1047D00005F02EFD01980444A9F10100A8420AD079
:1047E0002C2004F8010BBAF1000F02D0202004F8AD
:1047F000010B0020207057F825006449096888479C
:104800006D1C4D45DBDB38466049096888475D20F3
:1048100004F8010B002004F8010B58460EE72DE9BF
:10482000F04104460F4690461D46002614B900206C
:10483000BDE8F081002D49D0207B072845D2DFE874
:1048400000F0101C04282E343C0005212846FEF7F9
:10485000BCFF064626B1AFF20471304605F03BFDC1
:1048600033E006212846FEF7B0FF064626B1AFF238
:104870001471304605F02FFD27E005212846FEF78C
:10488000A4FF064626B1AFF22471304605F023FDA1
:104890001BE029462046FEF7DCFF064615E02946C8
:1048A0002046FFF7FFFA06460FE02B464246394600
:1048B0002046FFF793FE064607E02B464246394660
:1048C0002046FFF77DFC064600BF37E0207B072827
:1048D00033D2DFE800F00A1004161C222A00AFF2DF
:1048E0008C70FEF72AFE064627E0AFF29070FEF7C6
:1048F00024FE064621E0AFF29470FEF71EFE064647
:104900001BE000212046FEF7A4FF064615E000212B
:104910002046FFF7C7FA06460FE000234246394615
:104920002046FFF75BFE064607E000234246394675
:104930002046FFF745FC064600BF00BF304677E73C
:1049400010B504460023012219462046FFF767FFF1
:1049500010BD10B5044600231A4619462046FFF73D
:104960005EFF10BDFEB505460C46164620460849BA
:104970000968884700900194002002906B463246F7
:1049800000212846FFF74BFFFEBD00002407002052
:10499000200700205B5D000001468A68002001E0DE
:1049A000401C1268002AFBD170470246906801E063
:1049B000491E006808B10029FADC704770B5054649
:1049C0000E46AC6800E024682CB13146206AFEF740
:1049D0008EFD0028F7D1204670BD01604860704709
:1049E00070B50546FEF7D5FD04460CB9002070BD34
:1049F00028222946204605F01BFC00202062E068A2
:104A000040F48070E0600020606020602046EEE7A7
:104A100070B505460E46AC6806B970BD0CB9AE60FF
:104A200009E000E0246814B120680028FAD131467A
:104A30002046FFF7D2FF00BFEFE770B506460D46F0
:104A4000144604B970BD206A18B1FE49206A09688D
:104A500088472846FEF771FD206221463046FFF761
:104A6000D7FF00BFEEE770B506460D46144604B901
:104A700070BDA08900F4007028B9206A18B1F1490E
:104A8000206A096888472562E06840F40070E060A9
:104A900021463046FFF7BCFF00BFE9E770B5054689
:104AA0000C462046FFF79CFF064631462846FFF796
:104AB000AFFF70BD2DE9F04105460E461446204675
:104AC000FFF78EFF07463A4631462846FFF7B5FF07
:104AD000BDE8F08110B502460B46916801E0096817
:104AE0005B1E09B1002BFADC09B9002010BD486833
:104AF00010B1D1E900042060086810B1D1E900408C
:104B000060609068884201D1086890600020086069
:104B100048600846EAE770B504460D462946204637
:104B2000FFF7D8FF0646FEF741FD70BD2DE9F041C5
:104B300005460F460026AC6801E0761C24682CB1BF
:104B40003946206AFEF7D3FC0028F6D12CB1314655
:104B50002846FFF7BFFFBDE8F0810020FBE770B5F6
:104B600004460D4629462046FFF7E0FF0646FEF7BD
:104B70001DFD70BD2DE9F04106460F461446B5688F
:104B800001E02D687F1E0DB1002FFADC2DB9214602
:104B90003046FFF73DFFBDE8F08125606868606042
:104BA0006C60B068A84201D1B46001E06068046044
:104BB00000BFF0E72DE9F04106460F461446B56800
:104BC00001E02D687F1E0DB1002FFADC0DB9BDE8A4
:104BD000F0812868206068686060206808B12068FB
:104BE0004460B068A84201D1B46001E0606804602C
:104BF0000020686028602846FEF7D8FC00BFE6E782
:104C00002DE9F04105460E4617464FF00008AC6806
:104C100002E008F1010824682CB13146206AFEF751
:104C200066FC0028F5D144B13046FEF786FC3862B8
:104C30003A4641462846FFF7BDFFBDE8F08110B572
:104C4000FEF7A7FC04460CB10220E060204610BD30
:104C500010B5FEF79EFC04460CB10120E060204632
:104C600010BD10B5FEF795FC04460CB10020E060C5
:104C7000204610BD70B50546FEF78BFC044624B1F6
:104C80000DB1012000E00020E060204670BD70B54D
:104C900005460E46FEF77DFC044644B10320E06065
:104CA000C4E906562846314605F0FFFC60612046FF
:104CB00070BD70B50546FEF76CFC04462CB10420AF
:104CC000E0602846FEF739FC2061204670BD10B533
:104CD000FEF75FFC04460CB10520E060204610BDE5
:104CE00010B5FEF756FC04460CB10620E0602046E5
:104CF00010BD2DE9F05F81468A460025AB46FFF7DF
:104D0000E6FF0646002410E059F8240005F0BCFC3C
:104D10000746FFF7BCFF05460CB9B56003E029461E
:104D20005846FFF75AFEAB46641C0EB15445EBDB08
:104D30003046BDE8F09F2DE9F05F81468A460025A8
:104D4000AB46FFF7C4FF0646002410E059F82400E4
:104D500005F0CAFC0746FFF79AFF05460CB9B56097
:104D600003E029465846FFF738FEAB46641C0EB1F7
:104D70005445EBDB3046BDE8F09F2DE9F047074690
:104D800088460025A946FFF7A2FF0646002410E04A
:104D900007EBC400D0E900211046FFF778FF054675
:104DA0000CB9B56003E029464846FFF716FEA94650
:104DB000641C0EB14445EBDB3046BDE8F0872DE9BD
:104DC000F047074688460025A946FFF780FF0646BC
:104DD00000240DE057F82400FFF76BFF05460CB9DF
:104DE000B56003E029464846FFF7F7FDA946641C75
:104DF0000EB14445EEDB3046BDE8F0872DE9F047C3
:104E0000054689464FF0000815B90020BDE8F08737
:104E1000FEF7BFFB04460CB90020F7E7E86820F472
:104E20008070E06068696061D5E90601C4E9060147
:104E3000286968B12869FEF780FB2061206938B9CC
:104E4000204601E024070020FEF7B0FB0020DDE74C
:104E5000286A50B1286AFEF770FB2062206A20B9E8
:104E60002046FEF7A3FB0020D0E7B9F1000F01D1E7
:104E70002046CBE7AF6816E001213846FFF7BEFFBA
:104E8000064626B92046FEF791FB0020BEE7B8F1A2
:104E9000000F05D0C8F80060C6F80480B04601E0F5
:104EA000A660B0463F68002FE6D12046AEE7014637
:104EB00055E00278202A01D1401C50E00278092AEE
:104EC00001D1401C4BE002780D2A01D1401C46E084
:104ED00002780A2A01D1401C41E002782F2A0BD126
:104EE00042782F2A08D100E0401C0278002A36D0F0
:104EF00002780A2A33D0F7E702782F2A0ED14278B7
:104F00002A2A0BD100E0401C02782AB102782A2A12
:104F1000F9D142782F2AF6D1801C20E00278222A8B
:104F200019D110F8012B01F8012B0AE002785C2A54
:104F300003D110F8012B01F8012B10F8012B01F817
:104F4000012B027812B10278222AEFD110F8012B3E
:104F500001F8012B03E010F8012B01F8012B027876
:104F6000002AA6D10A70704770B504460B4600218E
:104F70003AE02578641C267805EB06227F2A02D8C1
:104F80005A54491C2EE0802A0FD3B2F5006F0CD280
:104F9000C2F3841040F0C0005854491C02F03F0096
:104FA00040F080005854491C1CE0B2F5006F16D345
:104FB0004FF6FF70824212D2C2F3033040F0E0009D
:104FC0005854491CC2F3851040F080005854491CC5
:104FD00002F03F0040F080005854491C02E04FF0BE
:104FE000FF3070BD641C00BF20780028C1D1585428
:104FF0000846F6E770B50246002449E0107800281C
:1050000008DD10787F2805DC10780870491C002026
:1050100008703AE0107800F0E000C02812D1137850
:10502000521C157805F0C000802802D04FF0FF30E8
:1050300070BD284663F39F100870491CC3F38200BB
:10504000087022E0107800F0F000E0281AD11678FD
:10505000521C1378521C157803F0C000802803D12D
:1050600005F0C000802802D04FF0FF30E0E728466E
:1050700063F39F100870491CC3F3830000EB061014
:10508000087002E04FF0FF30D2E7521C491CA41C0C
:1050900010780028B2D10870491C08702046C7E774
:1050A0002DE9F04781460E46484605F00DF90321EB
:1050B000B0FBF1F04500284605F036F807463946C2
:1050C0004846FFF797FF0446601CB8B1B846002574
:1050D0000EE0304605F0F8F800EB060A18F8053047
:1050E000681C18F800204BA1504605F091FDAD1C3E
:1050F00004EBD471B5EB610FEBDD00BF384605F072
:1051000007F82046BDE8F0872DE9F04304460E4637
:1051100015469C460021002349E0605C00F08000B9
:1051200010B9605CE85440E0605C00F0F000E028FA
:1051300038D1881CB04203DB4FF0FF30BDE8F0836C
:10514000605C00074FEA1048481C205C00F03F00FC
:1051500048EA801001F1020814F8088008F03F08BE
:1051600040EA0807A7F59C40DFF8B08038F8102027
:1051700010464FEAE27802EB1868C8F3072805F8F2
:1051800003804FEAE27802EB18684FEA2828A2EB86
:10519000082808F0FF0903F1010805F808905B1CD6
:1051A000891C02E04FF0FF30C8E7491C5B1CB1428C
:1051B000B3DB0020C2E7F0B5ADF6641D04460D4632
:1051C0004FF4166101A805F04CF8002619E020788C
:1051D0005C2812D1214601A805F07DF830208DF819
:1051E000040000208DF808001022002101A805F01D
:1051F0008AF80746AF55E41C01E02078A855761CD4
:10520000641C20780028E2D1A85528460DF6641DBC
:10521000F0BD00005C75257825780000C4DC00082E
:1052200008B503208DF8000000208DF801008DF8EE
:10523000020001208DF80300684601F0FAF908BD6C
:10524000F0B503460C461546642093FBF0F0C6B259
:10525000642093FBF0F700FB1730C1B2132E02DD80
:1052600001F16400C1B20846CF1701EB977701EB5B
:10527000A707BAB2072092FBF0F700FB172082B213
:105280005719601EDFF8F8C21CF80000384482B2DB
:10529000CF1701EB9777BF10A1EB87071FB9032C3E
:1052A00001DA501E82B2072092FBF0F700FB1720B4
:1052B000C0B2F0BD0146CA1701EB92729210A1EB89
:1052C000820292B9642091FBF0F200FB121050B9F7
:1052D0004FF4C87091FBF0F200FB121008B90120E6
:1052E00070470020FCE70120FAE70020F8E770B5DE
:1052F00000260024002502F047FB0646A148B6FB25
:10530000F0F4A1480088A0423CD09F490C8040F2B4
:10531000B27510E02846FFF7CDFF40B1B4F5B77F76
:1053200002D3A4F5B77404E0681C85B206E0A4F2C9
:105330006D14681C85B2B4F5B67FEBD800BF9348F6
:105340008580002516E091498888FFF7B3FF30B1CA
:10535000012D04D11D2C01D31D3C09E00CE08C482B
:10536000405DA04203D88A48405D241A00E003E073
:10537000681C85B21C2CE6D200BF681C834988716A
:10538000601CC8717F48B6FBF0F100FB11644FF45C
:105390006160B4FBF0F07D4908704FF46160B4FBCC
:1053A000F0F100FB11403C21B0FBF1F0774948706F
:1053B0004FF46160B4FBF0F100FB11403C21B0FB05
:1053C000F1F201FB1200714988700B46DA79997984
:1053D0009888FFF735FF6D490872002070BD2DE9F0
:1053E000F05F06460F4690469946DDE90AAB002479
:1053F00040F2B270864203DB40F63300864202DDA3
:105400000120BDE8F09F40F2B2750AE02846FFF7A0
:1054100051FF10B15F48044401E05F480444681C38
:1054200085B2B542F2DB781EC7B2002510E05848BD
:10543000405D40F2A321484304EBC0143046FFF71F
:1054400039FF18B1012D01D14E480444681C85B2C2
:10545000BD42ECDBA8F1010040F2A321484304EB7C
:10546000C014C9EB4910C0EB092004EB0014CAEBCF
:105470000A1004EB80045C4401214FF0C05000F09E
:1054800078FE012002F071FB204602F086FA02F05D
:10549000B7FAFFF72CFF0020B3E71CB50024012169
:1054A0004FF0C05000F065FE012002F05EFB0420CA
:1054B00002F023FB45F2500188423FD002F0E8FAA7
:1054C000012000F0B6FD04E0601CC4B20A2000F028
:1054D000A2F8412000F015FD0028F5D0FA2C01DBE0
:1054E00001201CBD4FF4807000F0BFFD012000F0D2
:1054F000C2FD02F085FA02F08CFA0121084602F0A2
:1055000023FA02F07DFA02F02CFA47F6FF7002F05F
:1055100051FA02F075FA372000210A230222CDE960
:1055200000100C2140F2D970FFF759FF02F022FA67
:1055300045F25001042002F0D4FA07E002F069FAC3
:105540000121084602F000FA02F05AFAFFF768FE5D
:10555000FFF7CDFE0020C4E710B5012002F07EFA6F
:1055600008B1FFF7C4FE022002F078FA10B1022061
:1055700002F084FA052002F081FA02F041FA10BD2F
:10558000888D01088051010028070020980700201D
:10559000948D01080085E2018033E10110B56FF0C0
:1055A000040001F090F82E4800682E49B0FBF1F09D
:1055B0002D4908700846007800EB4001C1EBC0108F
:1055C0004FF6FF7101EAC0002849088010BD01466E
:1055D000254A12784A434FF0E0235A6100229A612B
:1055E0001A46126942F001021A6100BF4FF0E02230
:1055F000106900F001021AB100F48032002AF5D0DF
:105600004FF0E022126922F001024FF0E0231A610C
:1056100000229A6170470146144A12884A434FF0AB
:10562000E0235A6100229A611A46126942F001028F
:105630001A6100BF4FF0E022106900F001021AB1B8
:1056400000F48032002AF5D04FF0E022126922F0F7
:1056500001024FF0E0231A6100229A6170470000B6
:105660002004002000127A002A0700202C070020C6
:105670000020B84908804880888070470146B548B6
:105680008088B0F5C87F01DB00207047B1484288B0
:10569000801D8154801F4088401C4FF4C87290FBCD
:1056A000F2F302FB1300AB4A508010468088401C86
:1056B00090800120E9E70146A648808808B90020CB
:1056C0007047A4480288801D805C0870A14800884B
:1056D000401C4FF4C87290FBF2F302FB13009D4A8A
:1056E000108010468088401E90800120E8E710B5A9
:1056F00086B00446012144F2040000F02DFD4FF471
:105700000070ADF8140003208DF8160018208DF8F5
:10571000170005A9904800F063FA4FF48060ADF8D7
:10572000140004208DF8170005A98B4800F058FAE2
:1057300025208DF8000001208DF801008DF8020071
:105740008DF80300684600F074FF01940020ADF866
:105750000800ADF80A00ADF80C00ADF810000C2000
:10576000ADF80E0001A97D4800F09DFD012240F238
:1057700025517A4800F02FFE0121784800F01FFEE5
:1057800006B010BD00BF7549098801F0400100292D
:10579000F9D07249091D0880704710B540F22551B3
:1057A0006E4800F0FDFE002879D040F225516B488C
:1057B00000F020FF00216A4802F07CF86948007878
:1057C00018B90121664801F0E1FD644800F068FE67
:1057D000C4B22046FFF752FF63480078002809D181
:1057E0002B2C08D16148007828B960480078401C0B
:1057F0005E4908707CE0482C09D15C48007801289B
:1058000005D15A480078401C5849087070E0542C63
:1058100009D156480078022805D154480078401C28
:105820005249087064E0542C09D15048007803288C
:1058300005D14E480078401C4C49087058E0502C67
:1058400009D14A480078042805D148480078401C0E
:10585000464908704CE0522C09D14448007805288C
:1058600005D142480078401C4049087040E0452C72
:1058700009D13E480078062805D13C480078401CF4
:105880003A49087034E0532C0AD138480078072888
:1058900006D136480078401C3449087028E037E0CB
:1058A000502C09D131480078082805D12F480078BC
:1058B000401C2E4908701BE0432C09D12B4800786E
:1058C000092805D129480078401C284908700FE0B4
:1058D0003A2C0AD1254800780A2806D1012022490D
:1058E000087000202149087002E000201F4908705C
:1058F0001D48007801280BD100201B4908701B4966
:105900000870FFF7B5FE4FF4C871194804F0A9FC00
:105910000821124800F02EFE012806D108210F4868
:1059200000F035FE0D4800F0BBFD10BD00B502468D
:1059300003E01078FFF726FF521C10780028F8D1FA
:1059400000BD00B502460B46D0B2FFF71BFF104664
:1059500000BD0000FA0900200008014000380140A5
:10596000000400402E070020300700202F070020F1
:10597000A207002010B5FCF751FA2122054906487C
:10598000FCF791FB04480078AA2801D0012010BD43
:105990000020FCE700D0C700900B00200146B1FAC0
:1059A00081F0C0F1200201209040704770B505469B
:1059B000102004F0B9FB0446681E284018B12846A0
:1059C000FFF7ECFF0546284604F0AEFB06460EB98D
:1059D000002070BD266065600020A060E06014B902
:1059E000304604F095FB2046F3E710B5044600204E
:1059F00020606060A060E060204604F089FB2068C1
:105A000004F086FB10BD2DE9F04104460E46154614
:105A10000DB104B116B90020BDE8F081D4E901014F
:105A2000401AE1680844A84201D9284604E0D4E9B4
:105A30000101401AE16808440546D4E90110491EF5
:105A400008406168081AA84201D9284605E0D4E94F
:105A50000110491E08406168081A0746D4E901216F
:105A6000521E1140226888183A46314604F0E0FB85
:105A7000EA1BF119206804F0DBFBA0682844A06051
:105A80002846C9E72DE9F04104460E4615460DB1FA
:105A900004B116B90020BDE8F081D4E90201401A32
:105AA000A84201D9284602E0D4E90201401A05467D
:105AB0006168491EE06808406168081AA84201D977
:105AC000284605E06168491EE06808406168081AD8
:105AD00007466268521EE0681040226881183A4604
